:020000040000fa
:080000000002040000000000f2
:020000040000fa
:100008009a0200009a0200009a0200009a02000078
:100018009a0200009a0200009a0200009a02000068
:100028009a0200009a0200009a0200009a02000058
:100038009a0200009a0200009a0200009a02000048
:100048009a0200009a0200009a020000a819000013
:100058002c1a0000c81800009a0200009a0200003a
:100068009a0200009a0200009a0200009a02000018
:100078009a0200009a0200009a0200009a02000008
:100088009a0200009a0200009a0200009a020000f8
:100098009a0200009a0200009a0200009a020000e8
:1000a8009a0200009a0200009a0200006c180000f0
:1000b8009a0200009a0200009a0200009a020000c8
:1000c8009a0200009a0200009a0200009a020000b8
:1000d8009a0200009a0200009a0200009a020000a8
:1000e8009a0200009a0200009a0200009a02000098
:1000f8009a0200009a0200009a0200009a02000088
:100108009a0200009a0200009a0200009a02000077
:100118009a0200009a0200009a0200009a02000067
:100128009a0200009a0200009a0200009a02000057
:100138009a0200009a0200009a0200009a02000047
:100148009a0200009a0200009a0200009a02000037
:100158009a0200009a0200009a0200009a02000027
:100168009a0200009a0200009a0200009a02000017
:100178009a0200009a0200009a0200009a02000007
:100188009a0200009a0200009a0200009a020000f7
:100198009a0200009a0200009a0200009a020000e7
:1001a8009a0200009a0200009a0200009a020000d7
:1001b8009a0200009a0200009a0200009a020000c7
:1001c8009a0200009a0200009a0200009a020000b7
:1001d8009a0200009a0200009a0200009a020000a7
:1001e8009a0200009a0200009a0200009a02000097
:0801f8009a0200009a020000c7
:020000040000fa
:100208009a0200009a0200009a0200009a02000076
:100218009a0200009a0200009a0200009a02000066
:100228009a0200009a0200009a0200009a02000056
:100238009a0200009a0200009a0200009a02000046
:100248009a0200009a0200009a020000a819000011
:100258002c1a0000c81800009a0200009a02000038
:100268009a0200009a0200009a0200009a02000016
:100278009a0200009a0200009a0200009a02000006
:100288009a0200009a0200009a0200009a020000f6
:100298009a0200009a0200009a0200009a020000e6
:1002a8009a0200009a0200009a0200006c180000ee
:1002b8009a0200009a0200009a0200009a020000c6
:1002c8009a0200009a0200009a0200009a020000b6
:1002d8009a0200009a0200009a0200009a020000a6
:1002e8009a0200009a0200009a0200009a02000096
:1002f8009a0200009a0200009a0200009a02000086
:100308009a0200009a0200009a0200009a02000075
:100318009a0200009a0200009a0200009a02000065
:100328009a0200009a0200009a0200009a02000055
:100338009a0200009a0200009a0200009a02000045
:100348009a0200009a0200009a0200009a02000035
:100358009a0200009a0200009a0200009a02000025
:100368009a0200009a0200009a0200009a02000015
:100378009a0200009a0200009a0200009a02000005
:100388009a0200009a0200009a0200009a020000f5
:100398009a0200009a0200009a0200009a020000e5
:1003a8009a0200009a0200009a0200009a020000d5
:1003b8009a0200009a0200009a0200009a020000c5
:1003c8009a0200009a0200009a0200009a020000b5
:1003d8009a0200009a0200009a0200009a020000a5
:1003e8009a0200009a0200009a0200009a02000095
:0803f8009a0200009a020000c5
:020000040000fa
:100400006f9520002e7624000e0188000000000069
:10041000000020000000e000020032000001200087
:10042000200288000c00070060c5210001002000a8
:1004300011000700000020000000e0000200320070
:1004400000000200000000007c1702000000000015
:100450000040da000000fe004440a90040022000f5
:100460000000e0000300320000002000a00188002e
:100470004440a80000000600910188008000780038
:100480000000eb0015003700e280400032a0b4000d
:100490009101ba00e280400032a0b4009102ba009b
:1004a000e280400032a0b4000002eb00472bde00e7
:1004b000f507b200602ce10004003a000059eb009f
:1004c0008301e900fdff3e00040037006128e100e0
:1004d000010032000082eb00040007001101ba00a5
:1004e0000200e000e8ff3a00000006003159ba00bf
:1004f0008301e9000c0032002159ba008301e900b0
:10050000080032000400e00003003a00e2804000ee
:1005100032a0b400f5ff370011d9ba008301e90019
:10052000faff3a008100e800e180400032a0b40008
:10053000000006000040da000000fe006900e10053
:10054000040035006d00e100030034000002b1003a
:100550000100320000000500100005000a00fa004a
:10056000e20f500022003e00a44a8000e10f52003a
:100570000600320087232000462320002423200089
:1005800005232000e08f530004003a00872220005a
:1005900046222000242220000522200000002800fe
:1005a0001500600003003a00800b78000700280067
:1005b000958a7300054020009482620001003a0091
:1005c00014a0a0008202780006003700940378008f
:1005d0000710b200fdff3200b103fb00070b7800eb
:1005e0008502e900e08f5200f8ff3a00080037006a
:1005f00034002000c0bf9f00e2bf9f00b4bf9f0037
:10060000d1bf9f006a805700e50507006fb99700ca
:10061000020078000080fa000000060004002400b8
:100620000602ab00feff3a000642ab00fcff3a00b8
:100630000662ab00faff3a000622ab00f8ff3a0070
:100640000682ab00f6ff3a00461080008602620088
:10065000e08f5200f2ff3a00000006000662a80098
:100660000662ab00feff3a0008c2a900001080003d
:10067000000006000080fb0010108800441080007d
:100680000408b20000c0eb000b003a000400240094
:100690004610800086026200e08f5200fcff3a00a4
:1006a000deff0700000028000802b600e00f50003f
:1006b00001003200e0cfb3000000060006a2a8004f
:1006c0000682a80000000600211088003010880073
:1006d000000006000622a800000006000602a8008e
:1006e000000006000642a8000000060003f0a20079
:1006f000889fbe008a9fbe008c1f7800c70007003d
:10070000ce0033006450e1004f0032006420e1006d
:100710005200320003826c0007003b000905d00044
:100720000306d000820f54000c065d000200390061
:1007300002003200890178000306780085825500a6
:1007400004003d000003fd008103fd008502ea0076
:100750008b854200840f720002003b006000100095
:10076000e08018006011b8000005eb007a28e10075
:100770000a00390006007800c75ddd00f707b20007
:10078000878075002d003700828171000a01780092
:10079000610560008180d1000080d3008502e900fe
:1007a000f9ff3b00060440008784480002003b003c
:1007b00060041400e0841c000988a30007003200d4
:1007c0008a81710082817100610164008904d10015
:1007d0000884d3008b05e800170037000978a300d0
:1007e00013003a000b00e000130034008b05e90011
:1007f0000804440089844c000a4474000978a3006a
:100800000d003a000b00e000070034008b05e90002
:100810000804440089844c0001003a000b002000c9
:100820000978a300f7ff32000001eb000200370057
:10083000828171000a0178003d0007000cf0a700da
:1008400001f0a000860037006420e10002003a00b9
:10085000838f6c00860033000801be000200be00da
:100860007f003700839f68000100e00002003d0028
:1008700060001000e08018000300e00002003d006e
:1008800060011100e0811900b00007004f00e00096
:1008900002003b0060001000e0801800000006002d
:1008a0000001be00480007000470a70003f0a1008b
:1008b0006509b100160032000d0035006828e1001e
:1008c00006003500f0ff2f00f1ff27000300e000d5
:1008d00013003b000100280000000500000040005c
:1008e000818048008502e900fcff3a0008003700db
:1008f000f88f420002003c008000eb000000050081
:100900008100d1000080d3008502e800fcff3a009e
:100910000300e00002003b0060001000e0801800cf
:10092000000006004f89de00820178009700370042
:1009300081002000618055000b003d000b0020006d
:1009400061fe2f000100e1001d0034008281710072
:10095000610164008904d1000884d3000000e8002c
:10096000faff3a007100200061006400030070008b
:10097000020060000900320061044400e0844c0081
:100980000988a500050032008b05e8006808e10031
:1009900002003a008904d1000884d300f20f20003d
:1009a0000258e10005003d00c75ddd00f907b20017
:1009b0008980750008007800000006000bf8270009
:1009c0008b00780000000500c70ade00f107b200c6
:1009d000f50fb20008003200e1cf42000200320001
:1009e0000170a00024000500810f7000010032009a
:1009f0000408050044000500810f700002003a0061
:100a0000140005008502e9000000400081c0480094
:100a1000fcff3b000170a000240005000004be00a4
:100a2000e9ff07000003be000405be000200be008f
:100a3000e5ff0700844f7500000006000200be00bd
:100a40006450e100050036006420e1000200360039
:100a50000968a30001003a000800be000160a00080
:100a60004f0678004f05be004f04be000000060090
:100a7000f0ff2f00f1ff2700f9ff3700889fbe002d
:100a80008a9fbe008c1f7800e4ff0700ebff330055
:100a900003866c006450e100240032006420e10011
:100aa000270032006150e100220032006120e100a5
:100ab000210032008b854200eb07b1000134b80001
:100ac000003ab8000804420089844a00013ab8009c
:100ad0000030b8008880400009014a00040033005b
:100ae0000000400081804800020149008b05e900b8
:100af000c909dd00830170000100320013002000ed
:100b0000c814de004814dd004709de001200b20000
:100b1000c808de000884700085ff070001f0a1000e
:100b20000cf0a70001f0a000cdff37006120e1002c
:100b3000cfff32000801be000200be00f7ff370001
:100b40006150e100fcff3a00c9ff37006022b800a5
:100b5000060220000000d0008180d2000482d20072
:100b60008582d2000000a0000202520083825a0057
:100b7000030031000202420083824a000000a1000b
:100b80000603e900f3ff3a0000000600881f780022
:100b9000030478000300e00007003d00600010003f
:100ba000e080180060011900e081190002003b009c
:100bb00001f02d00030037000400070008f0a70033
:100bc00001f0a0004f04780000000600889fbe00de
:100bd0008a9fbe00008270000402710004827100ce
:100be000260032000004be000200be006011b80002
:100bf0006b092000950220000182cf000a00390015
:100c00000541b1000082cf00070039000541b10065
:100c10000982cf00040039000541b1000882cf00ed
:100c2000010039000541b1000542520012003200b6
:100c30000a003b0082817100610164008100d100e3
:100c40000080d3008984d3000884d3008b05e8009a
:100c50000442e800f7ff3a000700370008044400a8
:100c600089844c0000004800818048008b05e90021
:100c70000442e900f9ff3a002dff07004f05be00ce
:100c80004f04be000000060000027800020037009a
:100c9000315a78000201e900e00f5100fcff3a00f0
:100ca0000000060015c0b30001002000849420005d
:100cb000504a8800614a8800054a78000000060012
:100cc000849420008042eb0094cf120002003a008e
:100cd00010002000f3ff0700504a8000614a8000a6
:100ce000d2e62400631c24002f0407009403230091
:100cf000050020000002420081824a00544a880018
:100d0000654a88000500780000f0a1000000060098
:100d100000027800b1427800055a7800e0cf520016
:100d2000fcff3a0000000600000278008042eb0061
:100d3000b4cf1200fdff3a000080ea00000042003c
:100d4000000006000c00fa00889fbe00f4ff270098
:100d500000047800d4bf9f008004eb0088bf9f0090
:100d600099bf9f00a8bf9f00240c200078815700e6
:100d7000b4bf9f00cfb097007080570007000700f6
:100d80000fba9700094a78000fba9700080052007e
:100d90004f04be000080fa0000000600ef03b00020
:100da000889fbe008a9fbe008c9fbe008006780090
:100db0008e1f78000007eb00d1af9f00a2b79f0005
:100dc00065033700dfa8970054c2b3008100e80034
:100dd000d1af9f00844f500006003a000102780016
:100de0000006eb0001c3b30000c2b300b7c2b300fa
:100df0000e0037003d0290000404b20004003200ef
:100e00001d027800004a7800840ee80005003700d3
:100e10000000fb008d0078005b030700e10f40003d
:100e20004d0332000e07e8004b03370084027800c0
:100e3000d2c2b30034437800824f5300090032001d
:100e400005003c00804f530008003200874f5300dc
:100e50000c003a0007003700814f530009003a00a8
:100e6000060037000c30a000f0ff37000c00a00097
:100e7000eeff37000c10a000ecff37000c20a000a4
:100e8000eaff370062026600010032000c00a10098
:100e900068026600010032000c20a1000602fb007f
:100ea0000403b100e90f52000c003e000503780076
:100eb0000002eb00b603fb006a22b9000703b10091
:100ec00086027800048243009603fb000703b1000a
:100ed000e98f5300f7ff3600080037000002eb00ef
:100ee000a7c2b300874f530004003a00afb1970088
:100ef0008502e80043027800a3b79f000003eb00df
:100f000096b79f00e6c2b300954f13000c003a005d
:100f10000ce0a00064435300d54f130003003200df
:100f2000050378000000eb0009003700afb397001d
:100f30008502e80047047800a7b79f0098b79f0094
:100f400005037800090037006a00b90000804300fb
:100f500086027800b603fb000703b100e98f530057
:100f6000f9ff360090b79f00f5ff3700b6427800d2
:100f7000cac6b300d6af9f008acf52002500320008
:100f80000f003c0036c6b30086cf52009d003200f1
:100f900004003c00e0cf5200f40232006b435300e7
:100fa0000f00370046c6b30086cf5200170032004c
:100fb0006543430086cf5200b1003a00130037006a
:100fc00036c7b30086cf52002000320007003c0035
:100fd0006443530086cf5200150032000643e800f8
:100fe00086cf5200a6003a001400370056c7b3005f
:100ff00086cf5200a90032006343430086cf5200df
:101000009f003a00e5779f000e003700e5779f00cc
:10101000a4003700f0036600050120000100320043
:10102000050028008c82720005067800cfff37008b
:10103000e5779f000c60a0009a003700e5779f00dd
:101040000c50a0000c70a00096003700afb59700c0
:10105000e5779f00cb027800abb79f00b5b79f0044
:10106000e08f520002003a00a1872000b1b79f0034
:101070003fb397008002eb00010037008502e800d3
:10108000e6c37a00e0cf5300fcff3a00c5b79f00eb
:101090001fb19700e00f510005003200cfb197005b
:1010a000830f51000200310082027800c5b79f0013
:1010b000cfb297000004eb00850f5200010036000c
:1010c000050452006806660009c2b3000f00320032
:1010d000290037003d0290000404b20004003200f1
:1010e0001d027800094a7800840ee80005003700e8
:1010f0008d00780000022000a3020700e10f4000ed
:10110000010032000e07e8000804e900e00f540077
:10111000f0ff3a000084eb0017003700bd0290009a
:101120000504b20009003200880278009d037800af
:1011300035437800864b780005047800870ee80078
:10114000e04f53000a003a00100037008802780090
:101150008d0078003500fb0084bf9f0005047800f7
:10116000890207000fba9700e10f40000700320024
:101170000e07e80005003700080278003fb497002a
:10118000cfb497005fb59700efb59700890278005c
:101190008504e900e08f5200e0ff3a00b8b79f00f5
:1011a000c9b79f00dab79f00ebb79f00040478002f
:1011b00009c2b300e00f56000f003a006602370084
:1011c0003d0290000404b200040032001d027800c9
:1011d000094a7800840ee800050037008d00780089
:1011e0000002200068020700e10f40000100320009
:1011f0000e07e8000804e900e00f5400f0ff3a0091
:1012000055023700afb097007003660041047800c4
:10121000a1b79f00cfc4de00090578008a057800d9
:101220000800be000a01be004800de00c80add005a
:1012300000807200e0779f00e00f53000900320049
:10124000e04f500007003200e14f4000050032003f
:1012500026002000f0779f00887f9f00c6b79f0080
:101260000300370017002000c7b79f00f8779f00e2
:1012700078fb2f0008844700b8b79f0084ff370031
:1012800069fb2f001a00200089844700e5779f0042
:10129000b9b79f00cab79f007dff3700e5779f0071
:1012a0000c0cb3008c027800050cb2003b003a0035
:1012b000e00f560005003d00afb297004501be00ab
:1012c0004500be00a5b79f000f003700f002660082
:1012d000120032002fb497004803be00f69f9f0013
:1012e00087a79f00a8b79f0098029000cfaade00b2
:1012f00095a79f00a5a79f007f9897008fa09700b4
:101300001fa19700afa19700b0b79f00c1b79f0082
:10131000d2b79f00e3b79f000b003700afb0970034
:10132000c102780005047800cfc4de00090578000a
:101330008a057800a1b79f00b8b79f00c9b79f0082
:10134000dab79f00ebb79f003fb09700cfb0970090
:101350005fb19700efb19700e00f5000e08f5800a9
:10136000e00f5900e08f590032003d006000b800e6
:101370006011b8003fb49700cfb497005fb59700f5
:10138000efb597003c00b300080450008984580072
:101390000a0559008b85590022003700e00f5600de
:1013a00005003d00afb297004501be004500be00fc
:1013b000a5b79f000f003700f00266001200320050
:1013c0002fb497008004eb004803be000005eb003b
:1013d00096af9f00a7af9f00b9af9f00caaf9f0015
:1013e0001fa89700afa897003fa99700cfa9970023
:1013f000a8b79f00b0b79f00c1b79f00d2b79f00aa
:10140000e3b79f000b003700afb09700c102780030
:10141000a1b79f0005047800090020000a00200001
:101420000b002000b8b79f00c9b79f00dab79f0034
:10143000ebb79f009fb49700e08f54000d003a0077
:101440001a0020003fb09700cfb097005fb197001f
:10145000efb197009ab79f00e00f5000e08f58005f
:10146000e00f5900e08f5900020032008000eb00cd
:1014700091b79f000c01780005042000020cb20017
:1014800082b79f00850f51003400320003003c00fa
:10149000e00f510008003200480037000508200026
:1014a0008fb19700858f510014003200050c200089
:1014b000858f510041003a00a688200015c0b30076
:1014c0003600be003601be003fb49700cfb497008f
:1014d0005fb59700efb597000040e10001c8e1005b
:1014e00002d0e10003d8e100330039008542e80072
:1014f000f4cf5200f2ff3a002f00370015c0b300be
:1015000000012000010020006011b8003fb49700e6
:10151000cfb497005fb59700efb597000040e100aa
:1015200001c8e10002d0e10003d8e1002200390047
:10153000490020000000d0008180d2000281d2004a
:101540008381d2008904e900faff3a008542e8006d
:10155000f0cf5200edff3a001700370015c0b3007e
:1015600080002000010020006011b8003fb4970007
:10157000cfb497005fb59700efb597000040e1004a
:1015800001c8e10002d0e10003d8e1000a003900ff
:10159000390020000000d0008180d2000281d200fa
:1015a0008381d2008904e900faff3a008542e8000d
:1015b000f5cf5200edff3a00e5779f006f75970079
:1015c0009fb597008a02fb008b8f520002003d00fe
:1015d000eb779f00040037001fb09700850f500085
:1015e00001003d0095b79f00e00f5200030032005c
:1015f000e3026600010032000402e9000500240055
:1016000085026600060032009fb09700810f5200ed
:101610000200340001025200010037000002eb001a
:101620006f7197008001eb008202fb00f3af9f0017
:10163000850f52000200340085025200f5af9f0072
:10164000640266003b003200e2026600610266004e
:10165000e08f520011003200bd0290000504b2007c
:10166000080032009d027800b6c2b300e00f5200bd
:101670000100320006c3e800864a7800850ee800c3
:1016800015003700b0022000e00f520001003200c8
:101690000080e8008d0078000c003700e00f520059
:1016a0000e0032003d0290000404b200050032003a
:1016b0001d02780005c2b300054a7800840ee800d8
:1016c000050037008d007800000220002e01070081
:1016d000e10f4000010032000e07e8007faa9700ea
:1016e000e00f52004f00320008c3b30084047800ba
:1016f0003d0290000404b200040032001d02780094
:10170000084a7800840ee800050037008d00780054
:10171000000320001c010700e10f4000010032001f
:101720000e07e8008904e900f1ff3a00f9af9f00d5
:101730003c003700ffaa9700e08f520014003200ef
:101740006802660012003a0008c2b30085047800ff
:101750003d0290000404b200040032001d02780033
:10176000084a7800840ee800050037008d007800f4
:101770000002200004010700e10f400001003200d8
:101780000e07e8008904e900f1ff3a00f9af9f0075
:10179000e202660061026600e08f52001100320032
:1017a000bd0290000504b200080032009d027800de
:1017b000b6c2b300e00f52000100320006c3e800d9
:1017c000864a7800850ee80015003700b002200038
:1017d000e00f5200010032000080e8008d00780028
:1017e0000c003700e00f52000e0032003d02900066
:1017f0000404b200050032001d02780005c2b300e7
:10180000054a7800840ee800050037008d00780056
:1018100000022000dc000700e10f40000100320060
:101820000e07e8001fb39700258820000602e90094
:10183000f0046600c223dd000c057800c7a79f00f6
:101840000a02b2006323b900e99f9f0006047800f2
:101850004322dd00b8a79f0085024200da9f9f0067
:10186000e5af9f00a30037009fb597000fb097002a
:101870008b05e900010420009bb79f00810f5000f9
:101880007300320003003c00e00f500008003200fb
:101890007e003700040820000fb19700840f51002c
:1018a00056003200040c2000840f510077003a00eb
:1018b000e00f56001f003d00efa997003304be0063
:1018c0002305be003fb09700cfb097005fb19700ef
:1018d000efb197000802be000a03be00e301070053
:1018e0000802be000a03be00e0779f000000fb0074
:1018f000cf80de00010178008201780044020700f9
:101900003fb29700cfb297005fb39700efb3970055
:101910000002520081825a0002035b0083835b0055
:10192000b4b79f00c5b79f00d6b79f00e7b79f0029
:101930002e003700ef9a9700e08f5200220032000d
:101940006fab97003fb29700cfb297003604be004e
:101950002605be000400be000801be0084bf9f0033
:10196000f5b79f000005eb0078fc07000801be00fa
:10197000e0779f000000fb00cf80de000a01070037
:101980000fba9700ffb297008aaf9f000004520081
:1019900081845a00d8a79f00e9a79f008004eb002c
:1019a000f9a79f005fa09700efa097007fa1970085
:1019b0008fa99700b0b79f00c1b79f00d2b79f0013
:1019c000e3b79f0009003700efa897003fb19700e9
:1019d00011027800110009000481d800a400200041
:1019e000110009000480d800e1779f00ef71970093
:1019f0000343b000e3779f00240037009486200063
:101a0000df9a9700e08f52000100320084852000a9
:101a10003fb09700cfb097005fb19700efb197004c
:101a20004fa397000603e900050033008301d100ae
:101a30000281d3008180d3000080d300f9ff3700fa
:101a40006f00600064407800e0779f000f0037006f
:101a50003fb29700cfb297005fb39700efb3970004
:101a60003fa497000804e900050033008703d10074
:101a70000683d3008582d3000482d300f9ff3700a8
:101a8000674262000443b000e4779f003d0290008b
:101a90000404b200070032009d0278006f729700c4
:101aa000844a7800850ee800e04f520007003a00b3
:101ab00007003700ef7497008d0078000900fb00e5
:101ac00031000700e10f4000010032000e07e8007e
:101ad0004fa59700bfa597006fa897006405550014
:101ae000e385550068005000caa79f00bba79f0070
:101af000e0af9f009fb09700e08f50005aff3a0080
:101b000068066600140032007fa99700e00f5100bc
:101b10001100340008c2b300820478003d02900036
:101b20000404b200040032001d027800084a780064
:101b3000840ee800050037008d00780000022000c8
:101b400011000700e10f4000010032000e07e8001d
:101b50008904e900f1ff3a00dfa9970013407800fb
:101b6000e0779f00e04f500096fc3a000e007800ae
:101b70004f0778004f06be004f05be004f04be0061
:101b8000ef03b10000000600889fbe00010478004a
:101b90008084eb0038029000e20262003b003200d9
:101ba00004037800980290000620b20002003a0078
:101bb000e08f520035003a000490a00080047800c5
:101bc00034049800f90fb200e08f520002003a008e
:101bd000a8029000050c7800ea8f540005003a0036
:101be0000408b20003003a0088007800d00020000a
:101bf000e5ff070018029000d8029000850f520000
:101c00000b0032000402e80015c0b3001404980071
:101c100018027800094a7800040ce800e4942000d7
:101c2000054a7800ea8f540018003a000500370092
:101c300009407800880078001700070080047800c9
:101c400012003700380290000410b2000f0032007a
:101c500018019000a8009000480090003ffa07008b
:101c600018029000840f50000400320038029000e7
:101c70000403b300340498008084eb000002eb00fe
:101c80001404980028029000040c780009007800e1
:101c90004f04be00000006000200fa00889fbe004c
:101ca00001047800a0ff9f003802900084027800b1
:101cb0000504b200020032000000fb0035003700ce
:101cc000e202620005003a000403b3001504980024
:101cd000340498000080eb002e003700d8049000f8
:101ce000e08f540006003a0012002000e680570002
:101cf0004800900019fa07001904980023003700e3
:101d0000a8029000e08f520008003a0015952000cc
:101d10000430a00025049800050c780034049800d5
:101d20002500200055049800150498001801900023
:101d3000a80090004800900008fa070028029000d0
:101d40008082eb0015049800affa9700054a7800ee
:101d5000040ce8002ffa9700ea4f52000b003a00fb
:101d6000380290000410b200080032001801900000
:101d7000a800900048009000f8f907000002eb006e
:101d8000a802900014049800050c78002ffa970020
:101d90000400fb004f04be000080fa0000000600b3
:101da00000c0da0000000600020ab900001bb900fa
:101db0000200b800810042008100430000000600dc
:101dc000889fbe008a9fbe003004be002005be0072
:101dd0000404440085844c0006054d0087854d00b1
:101de0000898be000a90be000440e10005c8e1006a
:101df00006d0e10007d8e100020031006800400091
:101e00001008e8004f05be004f04be0000000600a9
:101e10001000fa00889fbe008a9fbe0011002000bb
:101e20000605be000404be003002be002003be0052
:101e3000c4b79f00d5b79f00e6b79f00f7b79f00d4
:101e40000802520089825a000a035b008b835b0000
:101e500084bf9f0095bf9f00a6bf9f00b7bf9f0094
:101e60000498be000698be004fb29700dfb29700fc
:101e70006fb39700ffb397000820e10009a8e100c5
:101e80000ab0e1000bb8e100010039008000eb006e
:101e90004f05be00108810004f04be000080fa00fd
:101ea000000006001400fa00889fbe008a9fbe0052
:101eb0008c9fbe000006eb003e000700ccb79f00e1
:101ec000bcb79f00acb79f009cb79f008cb79f002a
:101ed0000605be000404be000d0420004fb39700a9
:101ee000bfb29700860343002fb29700e00f530064
:101ef00004003d003d0007000f004000b0ff070058
:101f000003003700390007000f004000c0ff070042
:101f1000cfb2970095bf9f00e08f520009003500b7
:101f20002b00070014002000050020006033b800db
:101f300000007200818072000201730083817300cf
:101f40001c0007000c06e8008d0f5600e3ff3a0066
:101f50001fba9700e00f520005003d000802be00c6
:101f60000a03be0000fe2f000f00400094ff070090
:101f70004faa9700e00f520008003a000fb49700f4
:101f80009fb497002fb59700bfb59700d8b79f00b3
:101f9000e9b79f00fab79f008bbf9f000c000700b6
:101fa0004f06be004f05be004f04be000080fa0081
:101fb00000000600010007000000060090b79f0027
:101fc000a1b79f00b2b79f00c3b79f0000000600f3
:101fd00001000700000006001fb09700afb0970097
:101fe0003fb19700cfb19700000006004f2bde00f5
:101ff000f9ff070086837300858242004f23de00cd
:10200000a7b79f00868272000402420095b79f0026
:10201000ffaa97004f2bde00858242000602720065
:1020200084b79f006faa97004f23de00040242008e
:1020300086827200f5af9f004f18de00000272002a
:10204000e5ff0700e4af9f000000400081804800ea
:1020500002014900838149000802be000a03be0054
:10206000d6ff070000fe2f0000000600881f780042
:1020700018002000881f78008aff07008f87e9007a
:102080004f04780000000600801feb0085ff07006a
:102090008f87e90000000600889fbe008a9fbe006f
:1020a000e00f5000e08f5800e00f5900e08f59001a
:1020b0000c003d006044b8006055b80000005400ba
:1020c00081805c0002015d0083815d0018002000ba
:1020d0001500070008003d00180007000004eb0091
:1020e000050037000004eb000f00070002003d0070
:1020f0001200070018002000dcff0700e00f54006a
:10210000060032006022b8006033b80000005200c0
:1021100081805a0002015b0083815b004f05be0095
:102120004f04be0000000600e00f5200e08f5a008e
:10213000e00f5b00e08f5b00000006006044b80029
:102140006055b8000402540085825c0006035d00ff
:1021500087835d0000000600889fbe008a9fbe0046
:102160008c1f7800e00f5000e08f5800e00f5900fe
:10217000e08f59000d003d006044b8006055b80084
:102180001c0020000000540081805c0002015d0002
:1021900083815d000820e10009a8e1000ab0e100a8
:1021a0000bb8e1000d003d00080037000006eb0011
:1021b000e00f5200e08f5a00e00f5b00e08f5b0001
:1021c00006003d006044b8006055b80004025400a9
:1021d00085825c0006035d0087835d00aaff07001f
:1021e000e00f5600060032006022b8006033b800ed
:1021f0000000520081805a0002015b0083815b0075
:102200004f0678004f05be004f04be0000000600d8
:10221000889fbe008a9fbe008c1f78000006eb00de
:10222000e00f5000e08f5800e00f5900e08f590098
:1022300007003d006044b8006055b8001c00200055
:102240000000540081805c0002015d0083815d001c
:10225000e00f5200e08f5a00e00f5b00e08f5b0060
:1022600007003d006044b8006055b8000c00a200b3
:102270000402540085825c0006035d0087835d00d4
:102280000c000700e00f5600060032006022b80084
:102290006033b8000000520081805a0002015b00e8
:1022a00083815b004f0678004f05be004f04be00df
:1022b00000000600889fbe008a9fbe008c9fbe0063
:1022c0000404b8000506b8008904460060854e0085
:1022d0000606b8000a054600e0854e000706b8006d
:1022e0008b054600040eb800890446000a854e009e
:1022f000e0854d00050eb8000a0546008b854e00ae
:10230000060eb8008b0546000416b8000a05460004
:102310008b854e000516b8008b054600041eb800dc
:102320008b0546000800be000a01be004f06be0035
:0c2330004f05be004f04be000000060078
:020000040000fa
:10233c00256400000920000025640000092000002d
:10234c00256400000920000025640000090a000033
:10235c002000000054650000737400005f550000fd
:10236c0061720000743100000a0000002564000056
:08237c00000a0000000000004f
:020000040000fa
:102384000200fa00889fbe00c48220001442780034
:10239400e04f52002f0032000e01780011c0b3004c
:1023a40000ccb300ef04070000427800e14f520074
:1023b400280032001e4278000400780028e8b700a4
:1023c40054418000cfa2de000400be0054f907008f
:1023d4000002be006266260063f623000400be000d
:1023e400a5f907000002be000404be001e427800e6
:1023f4000402fb00cfa2de000400be0048f907007f
:102404000002be00d2cc2c00c3dc23000400be00ba
:1024140099f907000002be000401be000800be00d6
:10242400b2f807000002be000400be001bf907005a
:102434000002be0004027800544188000042eb0010
:102444000002fd002ce8b7000002fd0014c0b30038
:10245400010037000042eb00044078004f04be0046
:102464000080fa00000006000200fa00004f780025
:10247400000000001e42780000c1eb0021c0b30040
:10248400044078008404070000427800e04f5200c2
:10249400f8ff3a00000000001e42780002c1b300b9
:1024a40011c0b300044078007b04070000427800a8
:1024b400e04f5200f8ff3a000080fa0000000600e6
:1024c4000800fa00604798000042eb00044f7800cf
:1024d4000042eb00444798004ff807001442800084
:1024e400cfa2de003600200007002000860f520035
:1024f400878f5a005e003e0004600100030037002d
:102504001300370024003700340037000042eb008a
:102514000400780031e8b7006e42900012c5b300a1
:102524008040eb00044078005b0407000042780020
:10253400044f78001e427800e14f520045003200fb
:10254400144280000402e800144288004800370066
:102554000042eb000400780031e8b7006e429000be
:10256400e4024700050178008040eb000440780055
:102574007c04070000427800044f78001e42780073
:10258400e14f520035003200144280000402e8009a
:1025940014428800360037000042eb000400780043
:1025a40031e8b7006e4290004284200031c0b3008d
:1025b400044078006b04070000427800044f780060
:1025c4001e427800e14f520026003200144280007f
:1025d4000402e80014428800250037006e4290008f
:1025e4005284200021c0b300044078005d04070039
:1025f40000427800044f78001e427800e14f5200f8
:102604001a0032000002eb001442880054842000b7
:10261400144278000402fb00140798001e02900084
:10262400c822dd0044842000144278000402fb0028
:1026340004824200140798001e029000a4418800fe
:1026440014c0b3000002fd0031e8b7000002fd0031
:1026540007003700000000000500370000000000fc
:1026640003003700000000000100370000000000f4
:102674001e427800040078002ee8b7000080fa00bb
:10268400000006000800fa00604798000042eb00d2
:10269400044f78000042eb0044479800def707003f
:1026a400f4418000cfa2de003600200007002000a5
:1026b400860f5200878f5a005b003e0004600100c1
:1026c40003003700130037002100370031003700c2
:1026d4000042eb000400780032e8b7006e4290003c
:1026e40012c5b3008040eb0004407800ea03070001
:1026f40000427800044f78001e427800e14f5200f7
:1027040042003200f44180000402e800f4418800f1
:10271400450037006e429000e4024700050178004e
:102724008040eb00044078000e040700004278006b
:10273400044f78001e427800e14f52003500320009
:10274400f44180000402e800f441880036003700b8
:102754000042eb000400780032e8b7006e429000bb
:102764000284200031c0b30004407800fd03070058
:1027740000427800044f78001e427800e14f520076
:1027840026003200f44180000402e800f44188008d
:10279400250037006e4290001284200021c0b3004f
:1027a40004407800ef03070000427800044f7800eb
:1027b4001e427800e14f52001a0032000002eb0082
:1027c400f441880014842000144278000402fb00c1
:1027d400140798001e029000c822dd000484200023
:1027e400144278000402fb0004824200140798009b
:1027f4001e029000b441880014c0b3000002fd0022
:1028040032e8b7000002fd000700370000000000b6
:10281400050037000000000003003700000000003e
:1028240001003700000000001e4278000400780018
:102834002fe8b7000080fa00000006000800fa0044
:10284400604798000042eb00044f78000042eb0020
:102854004447980070f70700d4418000cfa2de00ff
:102864003600200007002000860f5200878f5a0090
:102874005e003e00046001000300370013003700cf
:1028840024003700340037000042eb0004007800d5
:1028940033e8b7006e42900012c5b3008040eb00ed
:1028a400044078007c03070000427800044f78005d
:1028b4001e427800e14f520045003200d4418000ae
:1028c4000402e800d4418800480037000042eb00cd
:1028d4000400780033e8b7006e429000e402470039
:1028e400050178008040eb00044078009d03070058
:1028f40000427800044f78001e427800e14f5200f5
:1029040035003200d44180000402e800d44188003c
:10291400360037000042eb000400780033e8b700cb
:102924006e429000c283200031c0b300044078009e
:102934008c03070000427800044f78001e427800a0
:10294400e14f520026003200d44180000402e80026
:10295400d4418800250037006e429000d2832000c5
:1029640021c0b300044078007e03070000427800d1
:10297400044f78001e427800e14f52001a003200e2
:102984000002eb00d4418800d48320001442780074
:102994000402fb00140798001e029000c822dd0008
:1029a400c4832000144278000402fb000482420025
:1029b400140798001e029000c441880014c0b3009c
:1029c4000002fd0033e8b7000002fd0007003700f5
:1029d400000000000500370000000000030037007d
:1029e4000000000001003700000000001e427800d3
:1029f4000400780030e8b7000080fa000000060008
:102a04000a00fa001007980022079800330798007c
:102a1400410798001e0290004522dd00040f780053
:102a24004e029000e10f520002003a001e30a00056
:102a340002003700e4ff2f001e0f62002e029000f8
:102a4400be029000402ade00040278001e0f7200cd
:102a54001e027800040078000080fa0000000600de
:102a64000600fa0010079800210798001e02900043
:102a7400040f78001e027800040078000080fa0039
:102a8400000006000600fa00000f78001107980005
:102a94002207980004002200041c8800244420001b
:102aa400441c880064002000541c88006404200036
:102ab400141c88001e027800241c88009480a9003d
:102ac4008480a90081e3a8000002eb00641c880054
:102ad40004442000a41c88002e0290004322dd0040
:102ae4000402e900b41c880024022000741c88003d
:102af4001e029000841c880095c0a90085c0a9000e
:102b04008de3a8000080fa00000006000000fa002f
:102b14000164a800140020008420880004292000f7
:102b2400942088000080fa00000006000000fa00eb
:102b34000002eb00542088008860a9008cc0a90022
:102b44008840a9009860a8009cc0a9009840a900ea
:102b5400f40f2000642088000002eb0004218800a8
:102b64000002eb00142188000002eb0044218800dd
:102b74000002eb00542188000080fa0000000600e7
:102b84000000fa000004a90030e4a8000080fa0064
:102b9400000006000000fa000004a8001401200050
:102ba400a42088001100200002492c0013002000fa
:102bb4001009200092ff0700000278000422880018
:102bc40000492c0011002000a5ff07000002780036
:102bd400142288001100200002492c001300200058
:102be4000009200086ff0700000278008422880084
:102bf40000492c001100200099ff07000002780012
:102c040094228800b4fe2f00842188000082eb0007
:102c140094218800c42080000400a1000410a100b5
:102c2400c4208800c42080000480a1000490a10076
:102c3400c4208800042180000400a0000410a10026
:102c44000420a1000430a100042188001421800084
:102c54000400a0000410a1000420a1000430a1007d
:102c6400142188000080fa00000006000000fa0029
:102c74003064a80009003700852180000402200088
:102c840004826200e00f5200040032003064a900a4
:102c940081e3a90081e3a8003064a80084218000b6
:102ca40068026200e00f5200f3ff3a0085218000c1
:102cb4000404200004826200e00f5200020032008b
:102cc4000002eb000100370014002000040078002b
:102cd4000080fa00000006000000fa0004208000d2
:102ce4000480a1000490a10004a0a1000420880095
:102cf4000000000005208000040e20000482620011
:102d0400e00f5200fbff3a000080fa0000000600ca
:102d14000600fa00000f78001107980022079800b7
:102d24001e029000c222dd00c4ff210084826200e2
:102d34002e029000050a78002e0290000482e8001a
:102d44008002eb00050a78002e0290006402420023
:102d540085002000050a78002e02900066024200d9
:102d64009e02780095027800050a78002e029000f1
:102d7400680242009e82e80095027800050a780005
:102d84002e0290006a0242001e037800e40243000f
:102d940095027800050a78002e0290006c02420029
:102da4001e037800e602430095027800050a7800c5
:102db4000080fa00000006000a00fa00000f780004
:102dc40011079800220798003307980044079800d9
:102dd4001e0290004222dd00840278003500b30018
:102de4004e029000050a78004e0290000483e80029
:102df4002e029000be029000ca2bdd004622de00a7
:102e040004827300c6aade0084027800f4ff200066
:102e140004826200040b78004e02900064024200b7
:102e2400ae029000ca2add000530a000050a780031
:102e34004e029000660242009e02780095027800dd
:102e4400050a78004e029000680242009e82e80063
:102e540095027800050a78004e0290006a0242004a
:102e64001e037800e402430095027800050a780006
:102e74004e0290006c0242009e037800e6824300fa
:102e840095027800050a78000080fa000000060028
:102e94000400fa0089f7070000027800cfa2de00e0
:102ea400048fbe001e027800040078007cf707003f
:102eb4001e03be00443add00cc32de0085027200ff
:102ec4004432dd00048fbe00040037000082eb00b2
:102ed4008082eb001e0f42005e974a001e02be0075
:102ee400e00f5200e08f5a00f8ff3a000080fa0029
:102ef400000006002600fa000002eb00040f780030
:102f0400df02070000102e0001002000ce000700a1
:102f140004782000840278002477200082002000b6
:102f24008500780004007800d6fe0700f7fe07004d
:102f3400fefe070017ff070011ff070066ff0700ea
:102f4400e41f2000641988001061a9001e61a90013
:102f5400940880000440a1000450a1009408880053
:102f64001221a90012c1a900f4e124007408880008
:102f74001419800004d0a00004e0a00004f0a00014
:102f8400141988000042eb000002fd0024e3b7009e
:102f94000002fd00141980000480a1000490a10027
:102fa40014198800041980000450a1000460a000d2
:102fb4000470a1000419880025198000f40f2e0064
:102fc4000482620024198800041980000480a1008e
:102fd4000490a100041988002143a8002043a800fc
:102fe400141980000420a1000430a1000440a100b1
:102ff4000450a100141988002183a80095a0a800fa
:1030040085a0a90013e1a80021e3a800c9e2a90052
:10301400010037000000000034428000e10f52003c
:10302400fcff3a000002eb0034428800b442800006
:1030340054428800544280004422dd00ea024200e7
:103044000478240004824200140078005442800072
:103054004422dd00e8024200047824000482420095
:1030640094037800544280004422dd00e6024200ca
:10307400047824000482420014037800544280003f
:10308400c422dd0004782400048242009402780003
:103094006c024700801f7800871f7800861f780025
:1030a400851f7800e5192900851f78000400780041
:1030b40023f70700ea8757000002780024479800a6
:1030c4006c024700ae409000040078003001070015
:1030d400d1ff3700801f7800849fbe000000fa00f3
:1030e4008860a9005420800061026200e00f520051
:1030f400060032000a04a90014002000a44288003b
:10310400641680006416800005e1a8005420800045
:1031140062026200e00f520010003200b4428000ec
:10312400e70f520002003a000082eb00b44288002c
:103134000a24a9000002eb000421880014002000e6
:1031440034428800b44280000402e800b44288009b
:10315400641680006416800005e1a800cda2a900d1
:10316400552080000402200004826200e00f520017
:10317400020032000aa4a900cda2a8000080fa002f
:103184004f02be004f007800004006003600f800f1
:10319400809fbe00829fbe00849fbe00869fbe00ab
:1031a4000600fa00a40f220035002000048fbe00a0
:1031b400944280000402e8009442880085a0a9009b
:1031c40004188000240798002e029000cfa2de008d
:1031d4000401be0040da2e00a1002000a0f5070083
:1031e4000002be00048fbe001e02780074428800f4
:1031f40014c0b3000400780050e8b70064168000df
:103204004f22de00044278000404a20061426200fe
:103214000482fb004f22dd0056168000f5ff2700d4
:103224008502630005027200541688000080fa00cb
:103234004f03be004f02be004f01be004f00be0050
:103244003600f900004006000400fa00008fbe00ba
:10325400c2002000011b29002080200089f60700fd
:10326400b4c0b300040078001be8b7000540800038
:10327400e4ff2f0004826200044088001e01be00a7
:1032840000682900810920002ff607000002be0013
:10329400040278000402e900441188002062a800b6
:1032a4002002a900041180000410a1000420a10040
:1032b4000411880020a2a9002162a90020c2a9004b
:1032c400041180000480a1000490a100041188006e
:1032d40020e2a9002182a90021a2a8002082a9003d
:1032e40022c2a90022e2a90023e2a80023a2a90085
:1032f4002342a8002362a90023e2a90023c2a90053
:1033040022a2a9004405800004c0a00004d0a100aa
:1033140004e0a100440588008560a9009560a80028
:10332400540580000400a0000410a1000420a100a2
:10333400540588008580a9009580a80021e2a80092
:103344002342a8000080fa00000006003600f800be
:10335400809fbe00829fbe00849fbe00869fbe00e9
:103364000200fa008560a90034118000044f78003f
:103374001411800064026200e00f52000300320066
:1033840024c6b300044f78002242a900141180001f
:1033940062026200e00f52000300320014c6b30060
:1033a400044f78002222a9001e02fb0004007800ca
:1033b40061f4070000027800e10f520011003a00a6
:1033c4000002eb00344188000800370035418000da
:1033d400c4812000848242000042eb00844a7800c9
:1033e400344180000402e800344188003441800004
:1033f400e70f5200f5ff34000002eb00344188006f
:103404000800370035418000c48120000482420056
:103414001e4a7800344180000402e80034418800e8
:10342400000000000080fa004f03be004f02be00ff
:103434004f01be004f00be003600f90000400600f8
:103444000000fa000002eb00241188000080fa005a
:1034540000000600801f7800849fbe000000fa0070
:103464008580a9000a003700244180008482e80096
:103474000480200004824200144278000402fb000d
:1034840024118800244180000402e80024418800bb
:10349400151180000420200004826200e00f520015
:1034a40006003a00b4812000144278008482fb00b4
:1034b40024418000848f5200ebff3c00b481200043
:1034c400144278008482fb0024418000848f5200df
:1034d40006003c009580a900044080000400a00080
:1034e400044088000002eb00244188000080fa00b8
:1034f4004f02be004f007800004006000e00fa00a4
:10350400600798000000000004408000610262002f
:10351400e00f5200fcff32006e029000841f78001e
:10352400c41b2900841f78000e00780004f60700ed
:10353400e487570000027800044278000442e8005f
:10354400040078001be8b7000e007800f5f50700ca
:10355400000278000402470022002000f11b290029
:1035640004007800c7f507008e0078002080200052
:10357400e6f5070005408000e4ff2f0004826200a6
:10358400044088009580a8000080fa00000006002e
:103594000400fa00000f78002147980000000000a2
:1035a4000440800061026200e00f5200fcff320020
:1035b4002e429000040078001be8b7009e007800bb
:1035c40020802000d1f5070005408000e4ff2f0093
:1035d40004826200044088009580a8000080fa00fc
:1035e400000006000000fa00640580000440a0000a
:1035f4000450a1000460a000640588000080fa0063
:10360400000006000400fa00b4182000040f78003b
:1036140004222c00140798009e0078001e009000dd
:1036240028f407000080fa00000006000400fa00f5
:10363400204798000002eb00040f78002e4290000f
:10364400044078000af4070044108000610262001c
:10365400e00f520009003a00340480006202620064
:10366400e00f5200050032004510800004002800dd
:1036740004826200e00f52000300320018f40700d5
:1036840014c0b300010037000042eb00044078008e
:103694000080fa00000006000600fa0020479800a7
:1036a40031479800424798000bf4070000000000df
:1036b4003410800061026200e00f5200fcff3a0007
:1036c4008620a9002e409000d8ff07000042780011
:1036d400e04f52000200320014c0b3001e00370055
:1036e4003e409000d1ff070000427800e04f5200b6
:1036f4000200320014c0b300170037004e4090009f
:10370400caff070000427800e04f52000200320076
:1037140014c0b30010003700f1f307000002eb00ff
:10372400040f7800010037001e0fe800f4f92000b0
:103734009e027800848f5200fbff34003410800016
:1037440064026200e00f52000200320014c0b300b1
:10375400010037000042eb00044078000080fa00ca
:10376400000006000600fa00204798003147980040
:1037740022079800d8f307000000000034108000ee
:1037840061026200e00f5200fcff3a008620a900ab
:103794002e409000a5ff070000427800e14f520040
:1037a40002003a0014c0b3003c0037003e409000d1
:1037b4009eff070000427800e14f520002003a00e9
:1037c40014c0b30035003700c1f307000000000047
:1037d4003410800062026200e00f5200fcff3a00e5
:1037e4002e4290000404a00004407800a0f30700d7
:1037f400000000004410800061026200e00f5200eb
:10380400fcff3a0000000000340480006202620001
:10381400e00f5200fcff32008620a90000000000e7
:10382400451080000400280004826200e00f52006a
:10383400fbff3a0088f3070000427800ae029000d4
:10384400844a780000000000441080006202620094
:10385400e00f5200fcff3a0097f30700a0f30700c3
:103864000002eb00040f7800010037001e0fe8008f
:10387400f4f920009e027800848f5200fbff34008c
:103884003410800064026200e00f52000200320033
:1038940014c0b300010037000042eb00044078007c
:0838a4000080fa00000006009c
:020000040000fa
:1038ac00724700000e00000000000000804700007e
:1038bc008000000000000000460800000e00000020
:1038cc00000000005408000004000000020000008a
:1038dc000100ff00ff000000280800001e0000008f
:1038ec00000000000008000028000000000000009c
:1038fc004809000006000000000000005808000005
:10390c00ca000000020000003031320033343500b0
:10391c0036373800394142004344450046003000f8
:10392c003132330034353600373839006162630088
:10393c006465660000286e00756c6c002900000040
:10394c00010000000000000000000a000000000060
:10395c0000000000006400000000000000000000f7
:10396c00e803000000000000000010002700000029
:10397c000000000000a08600010000000000000014
:10398c0040420f00000000000000800096980000ec
:10399c00000000000000e100f50500000000000040
:1039ac0000ca9a003b00000000000000e40b540029
:1039bc00020000000000e80076481700000000003c
:1039cc000010a500d4e8000000000000a0724e001a
:1039dc0018090000000040007a10f3005a000000a3
:1039ec000080c600a47e8d000300000000c16f00a3
:1039fc00f2862300000000008a5d78004563010018
:103a0c0000006400a7b3b600e00d000000e88900d8
:103a1c000423c7008a0000002209000026000000d1
:103a2c00020000004f090000004f090009000000cf
:103a3c000002000051090000005109000e020100b3
:103a4c000000000000000000000000000602020060
:103a5c0000000000220900004e09000006000000d2
:103a6c0000000000540900000200000002000000e9
:083a7c00010000000000000041
:020000040000fa
:103a84000000fa00e4042000343a8800243a80005c
:103a94000460a1000470a100243a8800253a800043
:103aa40004fe2f0004826200243a88000002eb0026
:103ab400443a880040a7a9000002eb00043a8800b9
:103ac4003600200084072000a50920003774200058
:103ad400844b7800854b7800864b780016002000d4
:103ae400640420007505200027742000844b7800ae
:103af400854b7800864b780000000000153a800062
:103b0400040027008482620004002300848f520092
:103b1400faff3a0000000000153a80000402200079
:103b240004826200e00f5200fbff32002535800062
:103b340004fe2f00048262005401b300243588007f
:103b4400a536800004fe2f00048262003400b30016
:103b5400a43688002536800004fe2f00048262000b
:103b64000440a00024368800a535800004fe2f0000
:103b7400048262003401b300a4358800c9e2a900bc
:103b8400c9c2a900c9a2a900c982a900c962a90021
:103b9400d102a900d502a800cde2a900cdc2a90096
:103ba400cda2a900cd82a900cd62a80081e0a90020
:0c3bb40083e0a9000080fa000000060079
:020000040000fa
:0200000401f009
:04000c00fbff0000f6
:020000040000fa
:0200000401f009
:040010007dff000070
:020000040000fa
:0200000401f009
:040014007fff00006a
:00000001FF
